:100000000C943E000C9464000C9464000C94640006
:100010000C9464000C9464000C9464000C946400D0
:100020000C9464000C9464000C9464000C946400C0
:100030000C9464000C9464000C9464000C946400B0
:100040000C9464000C9464000C9464000C946400A0
:100050000C9464000C9464000C9464000C94640090
:100060000C9464000C9464000C9464000C94640080
:100070000C9464000C9464000C94640011241FBE62
:10008000CFEFCDBFDFE3DEBF0E944A000C945900E2
:04009000F894FFCF12
:10009400E0E0F4E080818068808380E090E0E7E045
:0E00A400F4E020E8009709F420830196FBCFDA
:1000B200EC010E9469000E946800CE010E946A0061
:0600C200CE010E94660061
:0400C8000C94000094
:0400CC000E94480046
:0200D000089591
:0200D20008958F
:0200D40008958D
:00000001FF
