:100000000C9450000C94FA010C94FA010C94FA012F
:100010000C94FA010C94FA010C9479010C94FA01F5
:100020000C944F010C94FA010C94FA010C94FA010F
:100030000C94FA010C94FA010C94FA010C94FA0154
:100040000C94FA010C94FA010C94FA010C94FA0144
:100050000C94FA010C94FA010C94FA010C94FA0134
:100060000C94FA010C94FA010C94FA010C94FA0124
:100070000C94FA010C94FA010C94FA013800380E31
:10008000000402380E38168038163818000410386C
:1000900018381A80381A381B000412381B381C8094
:1000A00011241FBECFEFCDBFDFE3DEBFECE7F0E0F2
:1000B00040E017C0B591A59135912591059107FDB7
:1000C0000CC095918591EF01F92FE82F05900D92C5
:1000D000A217B307D9F7FE0104C01D92A217B307F8
:1000E000E1F7E03AF40731F70E94FA000C94D301EB
:0400F000F894FFCFB2
:1000F40000020406090B0D0F111315171A1C1E20FC
:1001040022242628292B2D2F3133343638393B3DF0
:100114003E40414344454748494A4B4D4E4F505059
:100124005152535454555556565757575858585872
:10013400585858585857575756565555545453525B
:100144005150504F4E4D4B4A494847454443414016
:100154003E3D3B3938363433312F2D2B2928262484
:1001640022201E1C1A171513110F0D0B0906040269
:1001740000FEFCFAF7F5F3F1EFEDEBE9E6E4E2E07B
:10018400DEDCDAD8D7D5D3D1CFCDCCCAC8C7C5C366
:10019400C2C0BFBDBCBBB9B8B7B6B5B3B2B1B0B0DD
:1001A400AFAEADACACABABAAAAA9A9A9A8A8A8A8A4
:1001B400A8A8A8A8A8A9A9A9AAAAABABACACADAE9B
:1001C400AFB0B0B1B2B3B5B6B7B8B9BBBCBDBFC0C0
:1001D400C2C3C5C7C8CACCCDCFD1D3D5D7D8DADC32
:1001E400DEE0E2E4E6E9EBEDEFF1F3F5F7FAFCFE2D
:1001F4000E94F0010E94DE010E949F010E94B7014B
:10020400E0EAF0E0808183608083E0E0F4E08081D4
:1002140080648083E0EAF6E080818164808378945E
:10022400C0E0D0E001C0D0E00E94C70100910E38C8
:1002340010910F3820911038309111380617170794
:100244002807390788F70E94C701DC01CB018C50CD
:100254009E4FAF4FBF4F80930E3890930F38A093AB
:100264001038B0931138DD23A1F00E94E401EC2F83
:10027400F0E0EE0FFF1FE050F84C808191810E9466
:10028400F501CF5F80911A38C81768F2C0E0D0E05A
:0A029400CBCF0E94EA01D1E0C7CFF2
:10029E008F938FB78F939F93EF93FF9380911B381C
:1002AE008093A106E0911838F09119388091163894
:1002BE0090911738E80FF91FE0931838F09319381A
:1002CE00EF2FFF27EC50FF4FE491E058E0931B38DF
:1002DE0081E080930B0AFF91EF919F918F918FBFD9
:0402EE008F9118953F
:1002F2001F921FB61F9211248F939F93AF93BF93A8
:100302008091123890911338A0911438B091153819
:100312000196A11DB11D8093123890931338A093BA
:100322001438B093153881E080934301BF91AF91A7
:0C0332009F918F911F901FBE1F90189587
:10033E0088ED84BF82E08093780010924701E0E45C
:10034E00F1E081818111FDCFE0E4F1E082E290E005
:10035E008287938782818160828381E8808308957A
:10036E00E0E0FAE08FEF90E086A397A381E082872A
:10037E0093E0918380831092183810921938089563
:10038E002FB7F89460911238709113388091143809
:08039E00909115382FBF08955E
:1003A600EC010E94FF010E94FE01CE010E940002A4
:0603B600CE010E94FC01D3
:0C03BC00E0E2F4E0808188608083089516
:0C03C800E0E2F4E08481877F84830895E4
:0C03D400E0E2F4E08481886084830895F6
:0A03E00088ED84BF109261000895BB
:0A03EA008093163890931738089599
:0403F4000C94000065
:0403F8000E947800E7
:0203FC00089562
:0203FE00089560
:0204000008955D
:0E040200DB00F60015012501490171019E0184
:020410000001E9
:0104120007E2
:00000001FF
