:100000000C9448000C942C020C942C020C942C029E
:100010000C942C020C942C020C942C020C942C02A8
:100020000C9465010C942C020C942C020C942C0260
:100030000C942C020C942C020C942C020C942C0288
:100040000C942C020C942C020C942C020C942C0278
:100050000C942C020C942C020C942C020C942C0268
:100060000C9472000C942C020C942C020C942C0214
:100070000C942C020C942C020C942C02B100CE0097
:10008000B500D500FD00050101013800382D8000C4
:1000900011241FBECFEFCDBFDFE3DEBFEAE8F0E003
:1000A00040E017C0B591A59135912591059107FDC7
:1000B0000CC095918591EF01F92FE82F05900D92D5
:1000C000A217B307D9F7FE0104C01D92A217B30708
:1000D000E1F7EF38F40731F70E9427010C94FB0198
:0400E000F894FFCFC2
:1000E4001F920F920FB60F9211242F933F934F93A9
:1000F4005F936F937F938F939F93AF93BF93EF938C
:10010400FF9380911B0886FF12C083E00E94A50123
:1001140080911B0880FF7BC0EBE1F8E0808186952D
:10012400817091E0982780818C7091F06CC08091EF
:100134001B0888230CF075C080911B0881FF6CC0DC
:10014400EBE1F8E0808180818C7009F05CC00BC029
:10015400892F90E0FC01E25CFF4F0C941A0283E0CB
:1001640080931A0861C09091293880912B38981790
:1001740078F4E0912438F09125388091293891E081
:10018400980F90932938E80FF11D808180931D0802
:1001940083E080931A0848C081E08093283883E084
:1001A40080931A0841C080912838882359F080919F
:1001B4001D08809329388091293880932A38109219
:1001C400283815C090912A3880912C38981778F4E3
:1001D400E0912638F091273880912A3891E0980FE1
:1001E40090932A38E80FF11D80911D08808383E0E5
:1001F40080931A0819C082E080931A0815C082E01F
:1002040080931A0811C082E080931A080DC080916F
:100214001B088C70C1F7F3CF80911B088C7019F206
:10022400F2CF80911B08EFCFFF91EF91BF91AF9177
:100234009F918F917F916F915F914F913F912F91FA
:0A0244000F900FBE0F901F90189549
:10024E000E94CB010E9414020E94D80100E120E01E
:10025E0038E340E160E178E380E50E948B010E9483
:10026E0028027894C12CD12C76010E942E020E9475
:10027E00F001C616D706E806F90670F40E94F001E2
:10028E006B017C0124EFC20E21E0D21EE11CF11C99
:10029E000E9420020E942E020E94F001C616D7066E
:1002AE00E806F90610F70E94F0010E9424020E944F
:0C02BE000D02682F81E00E94E401D7CF00
:1002CA001F921FB61F9211248F939F93AF93BF93D0
:1002DA008091203890912138A0912238B09123380A
:1002EA000196A11DB11D8093203890932138A093C7
:1002FA002238B093233881E080930B0ABF91AF91E3
:0C030A009F918F911F901FBE1F901895AF
:100316000F93609326387093273840932C38209398
:1003260024383093253800932B38F90110829CE04D
:100336009093100893EE90931908880F80931C08E9
:040346000F91089576
:10034A00CF93DF93882389F0D82FC0E081E00E9401
:10035A00BD0100000000000080E00E94BD01000015
:10036A0000000000CF5FDC13F1CFDF91CF91089539
:10037A00882331F0E4E0F4E0808180688083089586
:0C038A00E4E0F4E080818F778083089528
:1003960084E09DE08093260A9093270AE0E0FAE045
:0A03A60081E08287118280830895B0
:1003B000E0E0F6E084E0808381E5828383E0868369
:0803C0008081816080830895B3
:1003C80090912B38891738F4E0912438F09125382A
:0803D800E80FF11D6083089598
:1003E000F894609120387091213880912238909152
:0603F00023387894089503
:1003F600EC010E9433020E943202CE010E943402B6
:06040600CE010E9430024D
:0E040C009091080681E0913009F480E0089597
:0E041A000E9406028823E1F3809110060895E7
:0C042800E0E0F4E08081806880830895AB
:0C043400EE0FFF1F0590F491E02D0994DD
:0804400080E880930704089591
:0804480081E08093080608958D
:0804500082E080930001089591
:040458000C94000000
:04045C00A8950895C2
:040460000E94700086
:020464000895F9
:020466000895F7
:020468000895F5
:00000001FF
