:100000000C9441000C940F010C940F010C940F01FF
:100010000C940F010C940F010C940F010C940F0120
:100020000C946B000C940F010C940F010C940F01B5
:100030000C940F010C940F010C940F010C940F0100
:100040000C940F010C940F010C940F010C940F01F0
:100050000C940F010C940F010C940F010C940F01E0
:100060000C940F010C940F010C940F010C940F01D0
:100070000C940F010C940F010C940F0138003804FC
:10008000800011241FBECFEFCDBFDFE3DEBFECE762
:10009000F0E040E017C0B591A5913591259105910B
:1000A00007FD0CC095918591EF01F92FE82F059080
:1000B0000D92A217B307D9F7FE0104C01D92A21733
:1000C000B307E1F7E138F40731F70E9491000C948F
:0600D000FA00F894FFCFD6
:1000D6001F921FB61F9211248F939F93AF93BF93C6
:1000E6008091003890910138A0910238B091033880
:1000F6000196A11DB11D8093003890930138A093FD
:100106000238B093033881E080930B0ABF91AF9118
:0C0116009F918F911F901FBE1F901895A5
:100122000E94E1000E9405010E94CF007894C1E480
:10013200C12CD12C76010E94EE00C616D706E80625
:10014200F906C8F70E94EE006B017C0128ECC20E92
:10015200D11CE11CF11C0E940B018C2F0E94B600E5
:0A016200CF5FCB3540F3C1E4E6CFD8
:10016C00E0E0F4E094819F7E948380932408E0E2A5
:10017C00F8E083818823ECF7E0E0F4E0848180618F
:10018C0084838091230886FB882780F991E0892756
:02019C000895C4
:10019E00E0E0F4E080818A618083E0E2F8E0808133
:1001AE008462808381818460818380818160808389
:0401BE00148208950A
:1001C20084E09DE08093260A9093270AE0E0FAE01B
:0A01D20081E0828711828083089586
:1001DC002FB7F894609100387091013880910238F3
:0801EC00909103382FBF089524
:1001F400EC010E9414010E941301CE010E9415011A
:06020400CE010E94110171
:0C020A00E0E0F4E08081806880830895CB
:0802160080E8809307040895BD
:04021E000C9400003C
:040222000E946900CD
:02022600089539
:02022800089537
:02022A00089535
:00000001FF
