:100000001CC0D6C2D5C2D4C2D3C2D2C2D1C2D0C201
:10001000FAC1CEC2CDC2CCC2CBC2CAC2C9C2C8C24A
:10002000C7C2C6C2C5C2C4C2C3C2C2C2C1C2C0C2A4
:10003000BFC2BEC23F003F04800011241FBECFEFED
:10004000CDBFDFE3DEBFE4E3F0E040E017C0B591F1
:10005000A59135912591059107FD0CC0959185914C
:10006000EF01F92FE82F05900D92A217B307D9F7EA
:10007000FE0104C01D92A217B307E1F7E933F407AC
:0A00800031F7E7D172C2F894FFCF08
:10008A000BC060D240F057D230F021F45F3F19F034
:10009A0074C251115FC280C2FBD198F39923C9F38C
:1000AA005523B1F3951B550BBB27AA276217730774
:1000BA00840738F09F5F5F4F220F331F441FAA1F28
:1000CA00A9F333D00E2E3AF0E0E830D091505040E8
:1000DA00E695001CCAF729D0FE2F27D0660F771F96
:1000EA00881FBB1F261737074807AB07B0E809F078
:1000FA00BB0B802DBF01FF2793585F4F2AF09E3F0D
:10010A00510568F03AC226C25F3FECF3983EDCF331
:10011A00869577956795B795F7959F5FC9F7880F85
:10012A00911D9695879597F90895E1E0660F771FD7
:10013A00881FBB1F621773078407BA0720F0621B68
:0E014A00730B840BBA0BEE1F88F7E095089537
:100158000AC0F2D128F0F7D118F0952309F00EC2A1
:100168001CC21124F8C195D1A0F3959FD1F3950F26
:1001780050E0551F629FF001729FBB27F00DB11D23
:10018800639FAA27F00DB11DAA1F649F6627B00DB3
:10019800A11D661F829F2227B00DA11D621F739F9C
:1001A800B00DA11D621F839FA00D611D221F749FAA
:1001B8003327A00D611D231F849F600D211D822FF1
:1001C800762F6A2F11249F5750408AF0E1F0882338
:1001D8004AF0EE0FFF1FBB1F661F771F881F915045
:1001E8005040A9F79E3F510570F0C8C1B4C15F3FA8
:1001F800ECF3983EDCF3869577956795B795F79578
:10020800E7959F5FC1F7FE2B880F911D96958795FF
:0402180097F90895B5
:10021C000DC090D130F095D120F031F49F3F11F406
:10022C001EF4B9C10EF4E095E7FBA6C1E92F2FD15E
:10023C0080F3BA17620773078407950718F071F4F7
:10024C009EF586C10EF4E0950B2EBA2FA02D0B0156
:10025C00B90190010C01CA01A0011124FF27591BFF
:10026C0099F0593F50F4503E68F11A16F040A22F05
:10027C00232F342F4427585FF3CF46953795279576
:10028C00A795F0405395C9F77EF41F16BA0B620B75
:10029C00730B840BBAF09150A1F0FF0FBB1F661FBC
:1002AC00771F881FC2F70EC0BA0F621F731F841FFF
:1002BC0048F4879577956795B795F7959E3F08F025
:1002CC00B3CF9395880F08F09927EE0F97958795E4
:0202DC00089583
:1002DE00E89409C097FB3EF49095809570956195D2
:1002EE007F4F8F4F9F4F9923A9F0F92F96E9BB2788
:1002FE009395F695879577956795B795F111F8CF04
:10030E00FAF4BB0F11F460FF1BC06F5F7F4F8F4F6E
:10031E009F4F16C0882311F096E911C0772321F064
:10032E009EE8872F762F05C0662371F096E8862FFC
:10033E0070E060E02AF09A95660F771F881FDAF753
:0A034E00880F9695879597F908959A
:10035800A8D088F09F5790F0B92F9927B751A0F0EF
:10036800D1F0660F771F881F991F1AF0BA95C9F741
:1003780012C0B13081F0EED0B1E00895EBC0672F24
:10038800782F8827B85F39F0B93FCCF386957795F1
:100398006795B395D9F73EF49095809570956195DA
:0803A8007F4F8F4F9F4F089516
:1003B000E0E0F4E020812F772083208120642083F7
:1003C000BC0180E090E08BDF20E030E040E851E4C9
:1003D000EDD09B01AC0164E573E78BE49DE4E4D0D0
:1003E00020E030E040E05FE3D4D0B6DF609308085F
:1003F0007093090883E080930708E6E0F8E08081C5
:06040000806C808308956A
:100406001F921FB61F9211248F939F93AF93BF9392
:100416008091003F9091013FA091023FB091033F30
:100426000196A11DB11D8093003F9093013FA093BB
:10043600023FB093033F81E080930B0ABF91AF91D7
:0C0446009F918F911F901FBE1F90189572
:1004520056D091D080E895E2AADF7894C1E4C12C0D
:10046200D12C760159D0C616D706E806F906D0F780
:1004720053D06B017C0128ECC20ED11CE11CF11C93
:100482008BD08C2F54D0CF5FCB3560F38DE04FD023
:080492008AE04DD0C1E4E6CF81
:10049A0057FD9058440F551F59F05F3F71F047952B
:1004AA00880F97FB991F61F09F3F79F08795089510
:1004BA00121613061406551FF2CF4695F1DF08C02F
:1004CA00161617061806991FF1CF8695710561054C
:0404DA0008940895E5
:1004DE00092E0394000C11F4882352F0BB0F40F444
:1004EE00BF2B11F460FF04C06F5F7F4F8F4F9F4F84
:0204FE0008955F
:1005000084E09DE08093260A9093270AE0E0FAE0D9
:0A05100081E0828711828083089544
:10051A00F8946091003F7091013F8091023F909161
:06052A00033F78940895E0
:10053000E4E0F8E0908195FFFDCF809302080895F4
:0E05400000240A9416161706180609060895D8
:0E054E0000240A9412161306140605060895DA
:0E055C00E894BB2766277727CB0197F908950F
:0E056A00EC0123D021D0CE0121D0CE0120D033
:0C057800E0E0F4E080818860808308955A
:0C05840097F99F6780E870E060E0089540
:0A0590005058BB27AA2742DEA2CF75
:08059A0088E080930704089536
:0605A2009FEF80EC0895BC
:0405A80070DD99CF9A
:0405AC00D5DD97CF33
:0205B00027CD55
:0205B2000895AA
:0205B4000895A8
:0205B6000895A6
:0205B80066DDFE
:00000001FF
